S0130000504F5254204472697665722E7372656340
S11300000C942A000C942E030C9447000C94470083
S11300100C9447000C9447000C9415040C94C903E9
S11300200C9447000C94F0030C9447000C94880340
S11300300C9447000C9447000C9447000C94470020
S11300400C9455030C9447000C9447000C944700FF
S11300500C94470011241FBECFE5D8E0DEBFCDBF0E
S113006010E0A0E6B0E0E8EAFBE002C005900D92E3
S1130070A63AB107D9F720E0A6EAB0E001C01D9284
S1130080A93CB207E1F70E9449000C94D2050C94F4
S113009000000E94B3040E9449010E9406030E94CA
S11300A0360580E50E94430581E00E9422030E94F8
S11300B019038091AE009091AF00A091B000B0916F
S11300C0B1000397A105B105A1F74091B600509185
S11300D0B7006091B8007091B9008091BA00909116
S11300E0BB00A091BC00B091BD00C090B200D09004
S11300F0B300E090B400F090B5008090BA00909006
S1130100BB00A090BC00B090BD009A01AB01281BBD
S1130110390B4A0B5B0BA4E6B0E00E94B305A701C0
S11301209601281939094A095B090E9463052901C6
S11301303A01C090B200D090B300E090B400F090C7
S1130140B5008090BA009090BB00A090BC00B09025
S1130150BD0060E080E00E94640288E890E00E94B4
S1130160C301C301B2010E94DF0185E20E9465015F
S113017060E081E00E94640286E990E00E94C3018D
S1130180D701C60188199909AA09BB099C01AD01C7
S1130190012E1AE0220F331F441F551F1A95D1F761
S11301A0102D60E074E284EF90E00E946305CA01C0
S11301B0B9010E94DF0183EA90E00E94C30189B77C
S11301C0806289BF1092AE001092AF001092B0000E
S11301D01092B1006ECFCF93C82F60E081E00E94EF
S11301E07F0260E082E00E947F02C4FB662760F920
S11301F083E00E947F02C5FB662760F984E00E94C9
S11302007F02C6FB662760F985E00E947F026C2F9F
S1130210661F6627661F86E00E947F0261E082E017
S11302200E947F028FE99FE00197F1F700C0000070
S113023060E082E00E947F026C2F617083E00E9484
S11302407F02C1FB662760F984E00E947F02C2FB43
S1130250662760F985E00E947F02C3FB662760F988
S113026086E00E947F0261E082E00E947F028FE9C3
S11302709FE00197F1F700C0000060E082E00E9477
S11302807F028FE19EE40197F1F700C00000CF9157
S1130290089583E30E94EB0082E30E94EB0088E26E
S11302A00E94EB0081E00E94EB0086E00E94EB00DC
S11302B08CE00E94EB0082E00E94EB008FE19EE460
S11302C00197F1F700C000000895CF93C82F61E0B3
S11302D081E00E947F0260E082E00E947F02C4FB12
S11302E0662760F983E00E947F02C5FB662760F9F8
S11302F084E00E947F02C6FB662760F985E00E94C5
S11303007F026C2F661F6627661F86E00E947F02AD
S113031061E082E00E947F028FE99FE00197F1F79C
S113032000C0000060E082E00E947F026C2F6170D8
S113033083E00E947F02C1FB662760F984E00E948B
S11303407F02C2FB662760F985E00E947F02C3FB3F
S1130350662760F986E00E947F0261E082E00E94E5
S11303607F028FE99FE00197F1F700C0000060E091
S113037082E00E947F028FE19EE40197F1F700C0C2
S11303800000CF9108950F931F93CF93FC018081B8
S1130390882359F08F01C0E00E946501CF5FF80106
S11303A0EC0FF11D80818111F7CF8FE19EE401975D
S11303B0F1F700C00000CF911F910F9108958F9223
S11303C09F92AF92BF92CF92DF92EF92FF920F93E0
S11303D01F938B019C01611571058105910521F421
S11303E080E30E9465015FC0992334F01616170656
S11303F0180619062CF057C08DE20E94650153C0FF
S113040061E070E080E090E00F2EFAE08F2E912CF6
S1130410A12CB12CF02DDC01CB01880F991FAA1F50
S1130420BB1F6C017D01CC0CDD1CEE1CFF1CCC0C35
S1130430DD1CEE1CFF1CC80ED91EEA1EFB1EC901E2
S1130440B801A50194010E9485056C0D7D1D8E1DCA
S11304509F1D022F132F242F352F1016110612065D
S11304601306CCF26230710581059105E4F00F2E7C
S1130470FAE08F2E912CA12CB12CF02DA501940122
S11304800E948505E22EF32E042F152F80E3860F9C
S11304900E9465016E2D7F2D802F912F6230710592
S11304A0810591055CF78FE19EE40197F1F700C0A7
S11304B000001F910F91FF90EF90DF90CF90BF90BD
S11304C0AF909F908F900895CF93DF9300D0CDB7D6
S11304D0DEB790E8998390EC9A83FE01E80FF11D52
S11304E08181860F0E94EB008FE19EE40197F1F772
S11304F000C000000F900F90DF91CF910895982FC6
S11305009695969596958770662309F43FC0613059
S113051009F07BC0913099F028F09230E9F09330E3
S113052041F108954BB321E030E0B90102C0660FF8
S1130530771F8A95E2F7CB01842B8BBB089548B3D0
S113054021E030E0B90102C0660F771F8A95E2F717
S1130550CB01842B88BB089545B321E030E0B90179
S113056002C0660F771F8A95E2F7CB01842B85BB07
S1130570089542B321E030E0B90102C0660F771F4D
S11305808A95E2F7CB01842B82BB08959130A1F0C8
S113059028F09230F9F0933059F108954BB321E0EB
S11305A030E0B90102C0660F771F8A95E2F7CB01EC
S11305B0809584238BBB089548B321E030E0B901D2
S11305C002C0660F771F8A95E2F7CB0180958423DA
S11305D088BB089545B321E030E0B90102C0660F3D
S11305E0771F8A95E2F7CB018095842385BB089514
S11305F042B321E030E0B90102C0660F771F8A954B
S1130600E2F7CB018095842382BB08958FB58E7F5A
S11306108FBD8FB58D7F8FBD8FB5877F8FBD8FB514
S11306208F7E8FBD89B78B7F89BF8EB585608EBD68
S1130630089517BC16BC8EB580648EBD89B78062E0
S113064089BF0895882331F0813039F48FB78068E9
S11306508FBF08958FB78F778FBF08951F920F9222
S11306600FB60F9211242F933F934F935F936F9381
S11306707F938F939F93AF93BF93EF93FF93E091F7
S1130680BF00F091C0000995FF91EF91BF91AF9128
S11306909F918F917F916F915F914F913F912F9196
S11306A00F900FBE0F901F9018951F920F920FB6C8
S11306B00F9211242F933F934F935F938F939F93A4
S11306C0AF93BF9344B155B128E833E1429FC001D1
S11306D0439F900D529F900D1124892F9927869541
S11306E08695A0E0B0E08093C1009093C200A093EF
S11306F0C300B093C400BF91AF919F918F915F915C
S11307004F913F912F910F900FBE0F901F9018950E
S11307101F920F920FB60F9211242F933F934F9372
S11307205F936F937F938F939F93AF93BF93EF9355
S1130730FF938091BE008F5F8093BE0090E0A0E0A5
S1130740B0E04091AA005091AB006091AC00709170
S1130750AD0084179507A607B70751F4E091BF00D1
S1130760F091C00009951092BE008091A60082BF4E
S1130770FF91EF91BF91AF919F918F917F916F9175
S11307805F914F913F912F910F900FBE0F901F904B
S113079018951F920F920FB60F9211242F933F9327
S11307A04F935F936F937F938F939F93AF93BF9375
S11307B0EF93FF93E091BF00F091C0000995FF9182
S11307C0EF91BF91AF919F918F917F916F915F91C5
S11307D04F913F912F910F900FBE0F901F9018953E
S11307E01F920F920FB60F9211248F939F93AF9382
S11307F0BF938091C5009091C600A091C700B091AD
S1130800C8000196A11DB11D8093C5009093C60038
S1130810A093C700B093C800BF91AF919F918F91EF
S11308200F900FBE0F901F9018951F920F920FB646
S11308300F9211242F933F938F939F93AF93BF9362
S11308408091AE009091AF00A091B000B091B10042
S11308500196A11DB11D8093AE009093AF00A093AB
S1130860B000B093B1008091AE009091AF00A09120
S1130870B000B091B1000197A105B105C1F486B5EE
S113088097B5A0E0B0E08093BA009093BB00A0932A
S1130890BC00B093BD001092C5001092C600109227
S11308A0C7001092C8008EB58F7B8EBD51C0809159
S11308B0AE009091AF00A091B000B091B10002974A
S11308C0A105B105E9F426B537B58091C50090912D
S11308D0C600A091C700B091C800DC019927882701
S11308E0820F931FA11DB11D8093B6009093B70092
S11308F0A093B800B093B9008EB580648EBD28C0B3
S11309008091AE009091AF00A091B000B091B10081
S11309100397A105B105E1F426B537B58091C5006B
S11309209091C600A091C700B091C800DC0199273E
S11309308827820F931FA11DB11D8093B20090934D
S1130940B300A093B400B093B50089B78F7D89BF7D
S1130950BF91AF919F918F913F912F910F900FBEB7
S11309600F901F901895E0E6F0E048E850E061E051
S113097070E08081982F9695969596958770218141
S1130980222319F02130C9F16BC0913091F028F085
S11309909230D9F0933029F163C09AB39B0102C01D
S11309A0220F331F8A95E2F7822F809589238ABB11
S11309B057C097B39B0102C0220F331F8A95E2F7F9
S11309C0822F8095892387BB4BC094B39B0102C0BF
S11309D0220F331F8A95E2F7822F8095892384BBE7
S11309E03FC091B39B0102C0220F331F8A95E2F7E7
S11309F0822F8095892381BB33C0913089F028F000
S1130A009230C9F0933011F12BC02AB3DB0102C03C
S1130A10AA0FBB1F8A95E2F7CD01822B8ABB20C0A7
S1130A2027B3DB0102C0AA0FBB1F8A95E2F7CD01F1
S1130A30822B87BB15C024B3DB0102C0AA0FBB1FE6
S1130A408A95E2F7CD01822B84BB0AC021B3DB0176
S1130A5002C0AA0FBB1F8A95E2F7CD01822B81BB8E
S1130A603296E417F50709F084CF089583B78860B8
S1130A7083BF83B7806483BF83B78F7E83BF83B70D
S1130A80806283BF0895982F80E064E670E00E943E
S1130A904F0561506CBF83B7856083BF089597FB92
S1130AA0072E16F4009407D077FD09D00E94BE05E6
S1130AB007FC05D03EF4909581959F4F089570955D
S1130AC061957F4F0895A1E21A2EAA1BBB1BFD015D
S1130AD00DC0AA1FBB1FEE1FFF1FA217B307E40719
S1130AE0F50720F0A21BB30BE40BF50B661F771F71
S1130AF0881F991F1A9469F7609570958095909551
S1130B009B01AC01BD01CF010895052E97FB1EF496
S1130B1000940E949C0557FD07D00E94630507FCC2
S1130B2003D04EF40C949C05509540953095219536
S1130B303F4F4F4F5F4F0895909580957095619505
S1130B407F4F8F4F9F4F0895A29FB001B39FC00165
S1130B50A39F700D811D1124911DB29F700D811DE5
S1130B601124911D08950E94A405A59F900DB49F82
S1130B70900DA49F800D911D11240895AA1BBB1BE9
S1130B8051E107C0AA1FBB1FA617B70710F0A61B89
S1130B90B70B881F991F5A95A9F780959095BC01AA
S10B0BA0CD010895F894FFCF84
S1130BA80101020103010401050106010B010C0105
S1130BB80D010E011A001B001C011D001E001A0065
S1130BC81201000000000000447574795F437963E2
S1130BD86C65203D20004672657175656E637920E9
S1090BE83D2000487A00E4
S9030000FC
